:020000020000FC
:100000000C940B000C9406000C94090051E04CD1A8
:10001000189591E018950FEF0DBF00E10EBF65D068
:1000200057D103E009BF129A7894DDC2771B662787
:100030008EE00F99FECF09E4302E03E03A94F1F7F9
:100040003A940A95D9F70F9908940F9B8894661FE4
:10005000771F04E2302E0AE03A94F1F73A940A95B9
:10006000D9F78A9581F7462F04EF302E02E00F93DF
:100070003F9200E3302E06E03A94F1F73A940A9565
:10008000D9F73F900F913A9491F70A9581F7771B32
:1000900066278EE00F99FECF09E4302E03E03A94F4
:1000A000F1F73A940A95D9F70F9908940F9B889421
:1000B000661F771F04E2302E0AE03A94F1F73A9473
:1000C0000A95D9F78A9581F7362F09E0142F140F76
:1000D0000A95E9F7310FA32E08950A950000000054
:1000E000000000000000C9F70895C598BD98089564
:1000F000BD9A00EFF2DFBD9803E2EFDF06B305FB28
:100100000DECEBDF0895BD9A0CE1E7DFBD9802E04E
:10011000E4DF06B305FB01E0E0DF0895BD9A01E0EE
:10012000DCDFBD980EE1D9DF06B305FB01E0D5DFCA
:100130000895BD9A01E0D1DFBD9807E0CEDF06B398
:1001400005FB07E1CADF08953F9338E0279510F4D7
:10015000E5DF01C0D8DF3A95C9F73F9108953F9395
:1001600038E02795E6DF27F93A95D9F73F910895CA
:1001700009E148E0279508F4302730FB379537F937
:100180004A95C1F7089590E0B3DF2CECDDDF24E45D
:10019000DBDF0EEE302E03E00F933F9200E3302EB4
:1001A00006E03A94F1F73A940A95D9F73F900F9107
:1001B0003A9491F70A9581F79BDF2CECC5DF2EEB83
:1001C000C3DFCDDF822ECBDF322F282D207F22957B
:1001D0003F703295230FF7D1513009F404C20895CE
:1001E000D2DFA21609F0FCCF04C2762F6627332790
:1001F000213071F0022F14D000000A95E1F71A9B0C
:1002000002C01A9801C01A9A621B730B98F70895DE
:1002100021E007D0621B730BE0F7089500C000C017
:1002200000D000D00000089533013344014433016D
:1002300033440144014440014001403940440144F9
:1002400001444C014C014C014C55015501550155DF
:100250005B015B555B0166010000E8E2F2E0913072
:1002600049F0C8953196002021F0202D64E6BDDFCD
:10027000F6CFF3CFB6D10C94F3023090008037FC68
:10028000FCCF03D000930080089500D000000895B3
:100290002D3069F12A30A9F10091008007FDFCCFD3
:1002A000F4DF209300C0089501E0E7CF02E0E5CF3E
:1002B00000E1E3CF04E1E1CF08E1DFCF0CE1DDCFE6
:1002C0000DE0DBCF0CE0D9CF0EE0D7CF0CE0D5CFDF
:1002D00005B7006C05BF01E0D0DF06E0CEDF0CE023
:1002E000CCDF08E3CADF0895022F0068C6CF009173
:1002F000008007FDFCCF00740068C7DF009300801A
:1003000008952F9320E4F0DF2F910895FF91EF914E
:10031000EE0FFF1FAF93BF93C8953196002021F0D9
:100320004AF0002D17D0F8CF3196F695E795BF919A
:10033000AF91099400FA002DC895A02DA03610F0B9
:10034000B2E001C0BB273196043879F0053881F05E
:1003500015C0E2CF2F93FF93EF93E42DF52D202FBF
:100360000995EF91FF912F9108950C91F3DFD4CF70
:100370000D91002309F4D0CFEDDFFACF5F934F93B7
:100380003F932F939F938F937F936F932D913D91E5
:100390004D915D9106FD06C005FD0FC004FD10C026
:1003A00003FD19C06AE0702F76957770729580E032
:1003B000902F9295937093951AC062E094E003C0D9
:1003C00060E194E000C0702F7695777009F478E0D2
:1003D000729580E00CC06AE0C895802D3196C89572
:1003E000702D3196902F95959370939500C0943011
:1003F00081F0933051F0923021F0332716F427FD2D
:100400003FEF442716F437FD4FEF552716F447FD0D
:100410005FEF09D06F917F918F919F912F913F91C5
:100420004F915F9179CFCF92BF92AF929F928F926F
:10043000BB18AA249924882486F4E89455236AF4E6
:100440006894772309F07051509540953095209528
:100450000FEF201B300B400B500B882351F05595AC
:10046000479537952795B794A794979487948A953D
:10047000B1F77F9372957F700EE20F9345D00C2DEC
:1004800030D00F930027201730074007500729F07E
:100490007723A1F37A9591F707C0772329F07A950E
:1004A00019F000E257DFF9CF16F40DE253DF0F9198
:1004B0000E3211F04FDFFBCF7F917F70772359F021
:1004C00049DF282D392D4A2D5B2D11D00C2D09D057
:1004D00041DF7A95D1F78F909F90AF90BF90CF90EA
:1004E00008950A3010F4005D0895095A0895CC2447
:1004F00000E2889420FDC60EC7945795479537951E
:1005000027950A95B1F70895CC2400E2221F331FE6
:10051000441F551FCC1CC61A08F4C60E0A95B1F725
:10052000221F331F441F551F50954095309520952D
:100530000895BADEE6DE08E4402E01E0502EE6DE45
:1005400054656D70206369626C653DC00A430000AC
:100550000895AADE08E4402E01E0502ED7DE2A2AB4
:100560002163276573742070726574212A2A000044
:10057000C8DE08E4402E01E0502EC8DE2A2A2A2ACE
:100580002A2A2A2A2A2A2A2A2A2A2A2A00000895D6
:100590008DDE08E4402E01E0502EB8DE2A2A2A2AF9
:1005A000524541445445412A2A2A2A00AADE08E439
:1005B000402E01E0502EAADE54656D702063696202
:1005C0006C653D00089572DE08E4402E01E0502E77
:1005D0009DDE54656D70206163743DC01243000060
:1005E000089562DE089550E0D3DF20DDA2DFF8DD5C
:0605F000FACFAFDF32DE9E
:00000001FF
